:1000000002060F02038DE86480F8E933E8336011DB
:100010000460F0ED33EC337009E8FCE9FDEAFEEB37
:10002000FF220460DED3EB9FEA9EE99DE8C2E78CE5
:10003000F0C2F795F0400CE8CCF8E9CDF9EACEFA39
:10004000EBCFFB12035885D0F05804700320D5B3D2
:10005000E80470075002B2D502039792D5EC046011
:10006000F7E4CCC0E0C398F8603B94186008400DFA
:10007000D0E0FB02036FE4FBFAC9FC8028E830E41F
:1000800006E4C9FBE4CAFCE830E305E4C9CACBFCDA
:10009000E854076010F8C3E913F9EA13FAEB13FB0D
:1000A000EC13FCD8F130F52FC3E49CFCEF9BFFEE82
:1000B0009AFEED99FDD0E0FBEF4E4D4C701222DB25
:1000C00003020394EC2CFCEF33FFEE33FEED33FD23
:1000D000ED30E7EB02036FEF2BFFEE3AFEED39FD5B
:1000E000D0E0FB50130BBB0003020397ED13FDEEB2
:1000F00013FEEF13FFEC13FC02036FEC4D6011E8ED
:10010000497017ED33EC3304600DE4FCFFFEFD2273
:10011000E933E8330470F802038D12035858046081
:1001200009E4CC2481500628500902039728400393
:10013000020394C0E0EB4A7044B98006D0E0FB02B1
:100140000383EF4E701CBD8008EBFFEAFEE9FD80E3
:10015000EBE98DF0A4FEE5F00201E4E9CDF9EAFE59
:10016000EBFFEF89F0A4FCE5F0CE89F0A42EFFE4CC
:1001700035F0CD89F0A42DFEE435F08067EF4E70A8
:1001800005BD80D780C3EF8BF0A4ACF0EE8BF0A45C
:100190002CFCE435F0F8EF8AF0A42CE5F038FCE410
:1001A00033CB8DF0A42CFCE5F03BF8EE8AF0A42CC8
:1001B000FCE5F038F8E433CF89F0A42CFCE5F03806
:1001C000CF3400CE89F0A42FFFE5F03EFEE433C922
:1001D0008DF0A42EFEE5F039CD8AF0A42FFFE5F0D6
:1001E0003EFEE43DFD33D0E0FB50070BBB000F02A9
:1001F0000397EC2CFCEF33FFEE33FEED33FD0203EF
:100200006F020397EC5D046005E859047003020374
:100210008D120358580460F6EC4860F2EC7004FD4F
:10022000FEFF22C860DB2481C85009C398600250D9
:10023000060203949850CAF582E9294B4A7005AB2F
:100240008202038375F0007C1A7880C3EF9BEE9ADC
:10025000ED99400DC3EF9BFFEE9AFEED99FDE8424C
:10026000F0DC23ACF0D0E0FFD0E0FED0E0FDAB82CC
:1002700020E7101BEB60BAEC2CFCEF33FFEE33FEF3
:10028000ED33FD02036FE803F830E705C0F075F0C9
:1002900000EF2FFFEE33FEED33FD40B830E7C280B4
:1002A000AA74F8CC6480CCC86480C8F58204604F1E
:1002B000C3EB9FF5F0EA9E42F0E99D42F0E89C45D1
:1002C000F0603C501DE5825FFFE582D313CB5BCB32
:1002D000F42B5582FB50280ABA002409B9002008E3
:1002E000801DE5825BFBE582D313CF5FCFF4C313A0
:1002F0002F5582FF50090EBE00050DBD00010CC335
:10030000EB9FF5F0EA9E42F0E99D42F0E89C45F053
:100310006007CC4820E701B3EC2275F020800E7511
:10032000F010800575F0087D007E007F003392D5C7
:1003300030D503120417EC334010EF33FFEE33FED9
:10034000ED33FDEC33FCD5F0ED22E5F0247EA2D5B3
:1003500013CC92E7CDCEFF22E9D2E7C933E833F8D8
:1003600092D5EDD2E7CD33EC33FC5002B2D522EC7E
:1003700030E7100FBF000C0EBE00080DBD00040BCF
:10038000EB6014A2D5EB13FCED92E7FD2274FFFCA9
:10039000FDFEFF22E480F8A2D574FF13FC7D80E40B
:1003A00080EFBB010CE58229F582E5833AF583E015
:1003B000225006E92582F8E622BBFE06E92582F8EE
:1003C000E222E58229F582E5833AF583E49322BBB4
:1003D000010689828A83F0225002F722BBFE01F3D4
:1003E00022C2D5EC30E709B2D5E4C39DFDE49CFC04
:1003F000EE30E715B2D5E4C39FFFE49EFE1204255C
:10040000C3E49DFDE49CFC800312042530D507C3A2
:10041000E49FFFE49EFE22C3E49FFFE49EFEE49D72
:10042000FDE49CFC22BC000BBE0029EF8DF084FF94
:10043000ADF022E4CCF875F008EF2FFFEE33FEECC0
:1004400033FCEE9DEC984005FCEE9DFE0FD5F0E9E7
:10045000E4CEFD22EDF8F5F0EE8420D21CFEADF0E6
:1004600075F008EF2FFFED33FD4007985006D5F0EB
:10047000F222C398FD0FD5F0EA227521017522F40E
:10048000E4F526F525F524F523D2B77F32FE1207D1
:10049000E51207C21208447F0A7E001207E5E4F560
:1004A00026F52575248075233FD2B4D2B5D2B67B0C
:1004B000FF7A077950F52C752D10FDFF1207129069
:1004C00000007F207E031207E5A3E58264034583D5
:1004D00070F07BFF7A077961752C00752D10E4FDB3
:1004E000FF120712E4FFFEFDFCAB26AA25A924A8F3
:1004F000231202A17F0070027F017E0020B4027EE1
:1005000001EF4E602A7A077972120706120805D2A7
:10051000B7E4F526F52575248075233FD2B47BFF1B
:100520007A07797CF52C752D107D01FF1207127F5B
:100530000020B6027F017E0020B5027E01EE4F60F2
:10054000237A07798D120706120805D2B7D2B5D2E1
:10055000B67BFF7A07797C752C00752D107D01E440
:10056000FF1207127F0A7E001207E50204E48B2FB8
:100570008A3089318C328D33C3E532648094805067
:100580000FC3E49533F533E49532F532742D8008CA
:10059000AB2FAA30A93174201203CFAE32AF337C17
:1005A000007D641203E1EF2430FFAB2F0531E5310C
:1005B00070020530F9AA30EF1203CFAE32AF337CB0
:1005C000007D641203E18C328D33AE32AF337C0098
:1005D0007D0A1203E1EF2430FFAB2F0531E53170C6
:1005E000020530F9AA30EF1203CFAE32AF337C00F0
:1005F0007D0A1203E18C328D33E5332430FFAB2FBB
:100600000531E53170020530F9AA30EF0203CF78E9
:100610007FE4F6D8FD75813302065602047AE4932E
:10062000A3F8E493A34003F68001F208DFF48029E5
:10063000E493A3F85407240CC8C333C4540F4420D4
:10064000C8834004F456800146F6DFE4800B0102C3
:10065000040810204080900860E47E019360BCA3F1
:10066000FF543F30E509541FFEE493A360010ECF11
:1006700054C025E060A840B8E493A3FAE493A3F83B
:10068000E493A3C8C582C8CAC583CAF0A3C8C582FB
:10069000C8CAC583CADFE9DEE780BEAF8CEFFEAD16
:1006A0008A7C00E42DF50BEC3EF50AE4F58CF58A26
:1006B000AC0AAD0B12031F7B297A5C79EF783F12ED
:1006C00000FBE4FBFA79C878421202048F178E16F9
:1006D0008D158C1430000BC200E4F517F516F515D6
:1006E000F514AF1BAE1AAD19AC18AB17AA16A915A5
:1006F000A81412000A8F1B8E1A8D198C180513E589
:100700001370020512227BFF752C00752D097D01E7
:100710007F028F278D288B298A2A892BE4F52E5377
:10072000280153270FE52D152DAE2C7002152C4EE8
:10073000601DAB29AA2AA92B852E8275830012037E
:10074000A2FBAD28AF27120825052E052780D6224B
:10075000446574656374696E672048312E2E2E2EB1
:10076000002048313A2038312E3720434D202121B6
:100770002100483120546F75676821002020202017
:10078000202020202020202020202020004832204F
:10079000546F75676821008D1C8B1D7C007D401295
:1007A00003E17B007A00790EAD07AC0612056E7B83
:1007B000007A00790E752C00752D04AD1DAF1C025A
:1007C00007127D017F381208AE7D017F081208AE46
:1007D0007D017F011208AE7D017F061208AE7D010A
:1007E0007F0C0208AEE4FDFCC3ED9FEC9E5015E4C7
:1007F000FBFA0BBB00010AEB64794A70F50DBD00F2
:10080000010C80E422C2B77F1E7E007C64EF4E6044
:10081000131CEC60087D0A1DED60F680FAEF1F7076
:10082000EC1E80E922AE07AC0353050153060FED21
:100830006003430640430680AF06E4FD1208AEAFF6
:10084000040208D7758921759850758DFD758BFD4B
:10085000E4F58CF58AD28CD2A9D28ED299D2AF226D
:10086000020A000002080000021200000414000046
:100870000000041800000000C10000D29200000037
:100880000000000000000000000000000000000068
:100890000000C292220000000000000000000000E2
:1008A0000000000000000000000000000022ED60D9
:1008B000031208C3C2A5C2A6008F8000D2A7000001
:1008C000C2A7227580FFC2A5D2A600D2A70000E56C
:1008D0008020E7FBC2A7221208C3D2A5C2A6008FC0
:0908E0008000D2A70000C2A7228B
:00000001FF
